:020000040800F2
:1000000040250020510100085D520008494A0008BF
:1000100059520008790B00086982000800000000AE
:10002000000000000000000000000000A55A0008C9
:10003000650C000800000000F5530008F15A0008A4
:100040006B0100086B0100086B010008ED5400080B
:100050006B0100086B0100086B0100086B010008D0
:100060006B0100086B0100086B0100086B010008C0
:100070006B0100086B0100086B0100086B010008B0
:100080006B0100086B0100086B0100086B010008A0
:10009000ED7D00086B0100086B0100086B01000892
:1000A0006B0100086B0100086B0100086B01000880
:1000B0006B0100086B0100086B0100086B01000870
:1000C0006B0100086B0100086B0100086B01000860
:1000D0006B0100086B0100086B0100086B01000850
:1000E0006B0100086B0100086B0100086B01000840
:1000F0009D4D0008A14D0008FD4000086B0100085F
:100100006B0100086B0100086B0100086B0100081F
:100110006B0100086B0100086B0100086B0100080F
:100120006B0100086B0100086B0100086B010008FF
:100130006B0100086B0100086B010008DFF80CD0B0
:1001400000F0CCFA0048004711900008402500203C
:100150000648804706480047FEE7FEE7FEE7FEE761
:10016000FEE7FEE7FEE7FEE7FEE7FEE7F55B0008D9
:100170003D01000840EA01039B0703D009E008C9DC
:10018000121F08C0042AFAD203E011F8013B00F85C
:10019000013B521EF9D27047D2B201E000F8012BA8
:1001A000491EFBD270470022F6E710B513460A46F7
:1001B00004461946FFF7F0FF204610BD2DE9FE4F1B
:1001C000804681EA0300C00F0C46009021F00041F8
:1001D00023F00045B8EB0200A94105D24046214674
:1001E00090461C460B46024623F00040104347D081
:1001F000270DC7F30A00C3F30A510290401A019079
:1002000040286BDAC3F3130040F4801B0098924639
:1002100020B10023D2EB030A63EB0B0B0198594684
:10022000C0F14002504600F0ABF906460D4650467C
:100230005946019A00F0B3F910EB0800614100241F
:1002400087EA115284EAE7731A4340D0009A62B3F6
:10025000019A012A4FEA075215DC001B61EB0201EB
:100260004FF0004202EA0752CDE90042001C41F57E
:10027000801132462B4600F0B3F903B0BDE8F08F91
:1002800040462146F9E7001B61EB0201001C41F5E5
:10029000801300185B412018A2F5001747EB0301FB
:1002A00040EAD570B6196D4111E06D084FEA360687
:1002B00045EAC0754FEA0752001B61EB0201001CC2
:1002C00041F5801149084FEA30000019514132468A
:1002D0002B4603B0BDE8F04F00F073B9009801223F
:1002E00040000023D0EB020263EBE073009821464C
:1002F0004FEAE074B8EB000061EB0401E9E783F03A
:1003000000435BE781F0004158E72DE9FE4F81EAA9
:10031000030404F0004421F0004100944FF0000B6E
:1003200023F0004350EA01045ED052EA03045BD09C
:10033000C3F30A54C1F30A552C44A4F2F3340194D4
:10034000A0FB0254C1F3130141F48011C3F3130362
:1003500043F4801301FB024400FB034E840A970A16
:1003600044EA815447EA8357A4FB076802958D0A43
:1003700005FB07854FEA932C04FB0C542705029DCF
:100380004FEA065847EA1637B5EB08056EEB070C3F
:10039000870E920E47EA811742EA8312A7FB0201F9
:1003A000B6EB0B0164EB00042B0D43EA0C335E1833
:1003B00044EB1C50DA465146E7FB0201C5F3130437
:1003C0004FEA0B3343EA14534FEA0432019C43EAE9
:1003D0000603A4F10C040294009CCDE900B400F0E3
:1003E000FFF803B0BDE8F08F00200146F9E72DE9E2
:1003F000F04D81EA030404F0004B21F0004514465F
:100400004FF0000A23F0004150EA050220D054EAE0
:1004100001021DD0C5F30A570246C5F31303C1F309
:100420001300C1F30A5640F4801543F48013A7EB80
:100430000608101BD64608F2FD3873EB050002D300
:1004400008F1010801E092185B41B8F1000F03DAEE
:1004500000200146BDE8F08D00204FF480110646D3
:1004600084460EE0171B73EB050705D3121B63EBE5
:10047000050306434CEA010C49084FEA3000921884
:100480005B4150EA0107EDD152EA030012D082EA43
:10049000040083EA0501084305D0101BAB4106D2D6
:1004A0000122002306E000224FF0004302E06FF03B
:1004B000010253101AEB06004CEB085110EB0A0036
:1004C00041EB0B01BDE8F04D00F07BB800F00042BD
:1004D00030F000400AD0C10D01F56071C0F3160084
:1004E00042EA0151C208400711437047002001460B
:1004F000704730B50B46014600202022012409E058
:1005000021FA02F59D4205D303FA02F5491B04FACC
:1005100002F52844151EA2F10102F1DC30BD2DE9DF
:10052000F05F0546002092469B4688460646814677
:1005300040241BE0284641464746224600F0E0F8AA
:1005400053465A46C01A914110D3114618462246C6
:1005500000F016F82D1A67EB01084F4622460120DD
:10056000002100F00DF817EB00094E41201EA4F108
:100570000104DFDC484631462A464346BDE8F09F89
:10058000202A04DB203A00FA02F100207047914053
:10059000C2F1200320FA03F3194390407047202A48
:1005A00006DBCB17203A41FA02F043EAE07306E09B
:1005B00041FA02F3D040C2F12002914008431946AB
:1005C000704710B5141E73F1000408DA401C41F1A5
:1005D000000192185B411A4301D120F0010010BDC7
:1005E0002DE9F04D92469B4611B1B1FA81F202E03D
:1005F000B0FA80F220329046FFF7C2FF04460F4661
:1006000040EA0A0041EA0B0153465A46084313D018
:10061000114653EA010019D0C8F14002504600F0DB
:100620006FF805460E46504659464246FFF7A8FF6A
:10063000084305D0012004E020463946BDE8F08D8E
:100640000020054346EAE0762C4337430A986305C9
:10065000E40AA0EB08000022FD0A44EA47540A30ED
:1006600002D500200146E9E7010510196941DDE9DD
:10067000084500196941BDE8F04DA2E7C1F30A52EF
:10068000C1F3130140F2FF3341F480119A4202DAC0
:1006900000200146704740F233439A42A2F23342AF
:1006A00002DC524200F02CB8FFF76ABF30B5041EDE
:1006B00071F1000404DB4FF00044404264EB01019F
:1006C000141E73F1000405DB1C464FF00043524238
:1006D00063EB0403994208BF904230BD064C074DBE
:1006E00006E0E06840F0010394E807009847103402
:1006F000AC42F6D3FFF726FD40A1000870A1000828
:10070000202A04DB203A21FA02F00021704721FA66
:1007100002F3D040C2F120029140084319467047CD
:1007200030B58C1810F8012B12F00F0301D110F81E
:10073000013B120906D110F8012B03E010F8015B10
:1007400001F8015B5B1EF9D101E001F8013B521E8B
:10075000FBD1A142E6D3002030BD000010B588B027
:1007600049F6E460C0F6000090E80E50446901913B
:10077000018B807E02920393CDF810C0CDF814E077
:100780000694ADF81C108DF81E0005F03FFB01A883
:1007900004F0C4FF08B010BD7047000010B588B069
:1007A00004464068B0F80B00B0F5124F2FD16846F0
:1007B00004F0C2FF61680020497B06900129CDF852
:1007C0001500CDF8110021D009BBFFF7C7FF0F209E
:1007D0008DF810007F208DF8120042F20000CEF25A
:1007E00004000168090CADF81C1000686FF31F309D
:1007F000ADF81E0004A804F083FF00F00BF8012000
:10080000002107F09DFB08B010BD00BF207008B0AC
:1008100010BD00002DE9F0419AB049F60070C0F615
:10082000000090E88E000DF11C0E8EE88E0000F1A5
:100830002007D0E904658ECF0DF13C0ED0E906C447
:10084000CDE90B65D0E90C658EE88E0090F83A1082
:10085000008F8DF85610ADF8540040F22800C2F217
:100860000300169040F6DD20C0F60000179040F619
:10087000F520C0F6000016A9CDE90DC4CDE9136539
:1008800008F03EFA0220012107F05AFB48F689726F
:10089000C0F6000202200021002407F089FB07A80F
:1008A00004F020FF002818BF00F0E0F947F280555F
:1008B000C1F6FF75ADF8624008F0CCFA2868411C1B
:1008C00010D041F2A0746968C2F200042070000ADE
:1008D0006070080C0A0A2071080EA170E270607145
:1008E0000AE000BF002004F0BDFC4AF20C14C0F680
:1008F0000004002818BF04460020062122460025D7
:1009000008F002F8607940F20801C2F200010875AF
:1009100020794AF2FC024875E078C0F6000288753A
:10092000A0784FF01008C87560780876207848766F
:100930001820102107F0E8FF4AF2EC02C0F600028E
:1009400008201021082407F0DFFF012018210126CC
:1009500007F0B2FF07F036FF0DF1660019AF009007
:1009600016AB012000210822019707F0A1FCBDF879
:100970005800BDF866104BA700220823009707F027
:1009800041FFBDF85800BDF864100DF16207002268
:100990000223009707F036FF00200221022208F010
:1009A0001FFA40F2B417C2F2000701203E7007F0B0
:1009B000A1FD4BF207200121C0F20100C1F20801A4
:1009C000B860C7F80210CDE90250012001210122D0
:1009D00000237E70CDE90048049507F0FFFCB8784D
:1009E000002818BF07F044FC04F0A4FF40F6B1242F
:1009F0004FF6FF70C0F60004F88201200021224665
:100A000087F8805007F0D4FA062007F02FFF04F093
:100A10004DFC01200021224607F0CAFA062007F00B
:100A200025FF00F0FBF840F6D12307F18101C0F665
:100A300000030020002203F001FD45F6ED2307F13D
:100A40008201C0F600030020002203F0F7FC97F8B3
:100A500081003D8303F060FF00208021A02200235D
:100A600087F88060CDE90055CDE90255CDE9045500
:100A7000069507F0EFFC40F20801C2F200010C20DD
:100A800007F07EFD10B11AB0BDE8F08197F8810043
:100A90004EF24601C0F2010103F02CFE1AB0BDE88F
:100AA000F08100BF54454D504C41544500000000BA
:100AB00010B540F2B414C2F2000494F88000052886
:100AC00008BF10BD07F03CFD002084F8800010BD79
:100AD0000120002107F088BB70470000012805D0E5
:100AE000002818BF7047032007F04ABA032007F018
:100AF00073BA000010B504464068083004F0A4FF43
:100B0000002818BF0120207010BD000070470000B1
:100B100080B584B09C460B4664210291410041F6A9
:100B200024300092C2F200001A460123CDF804C01E
:100B300000F05EFD002818BF4FF0FF3004B080BD0C
:100B400080B584B09C460B4664210291410041F679
:100B500024300092C2F200001A460123CDF804C0EE
:100B600000F062FE002818BF4FF0FF3004B080BDD7
:100B700000F08CBB70470000FEE70000222805D182
:100B800041F2C070C2F200000121017000207047E4
:100B90000020704710B541F2C474C2F2000440F660
:100BA0001071C2F200012046002205F059FC40F20B
:100BB0001071C2F20001204605F044FC002010BD77
:100BC00010B541F2C474C2F200040146204605F09B
:100BD00039FC204605F05AFB002010BD002070476C
:100BE00010B541F2C472C2F20002D2F8BC22D2F8AF
:100BF0001432002B1CBF012010BD41F2C474C2F29C
:100C000000040A460146204605F02AFC2046BDE8BD
:100C1000104005F0B5BC00007047000070470000B0
:100C2000704700007047000080B586B04178FF290A
:100C300002D0002006B080BDB0F8031040F61B4281
:100C40009142F6D1B0F805000121ADF8140001A8D9
:100C50008DF80410FFF7E6FF002006B080BD00000D
:100C6000704700007047000070470000EFF31080ED
:100C700072B600BFFEE700002DE9F04181B000220E
:100C8000009290F85020012A04D10221084601B0B8
:100C9000BDE8F0810123076880F85030BB685B072E
:100CA00000F13E81D1E900431F26C3F3012207EB87
:100CB0008202156B03F01F039E4025EA0606C4F36B
:100CC000846505FA03F333431363BA68BB6802F023
:100CD000040203F00803D21874D10A688B68C2F3C7
:100CE000406607EB86067569C2F3045207249440F8
:100CF000A54303FA02F22A437261D1E9043CFC687D
:100D0000042B40F091803A6E3A6E0B68C2F3846215
:100D100093FAA3F6C3F3846C6FF3DF43B6FA86F558
:100D2000002B2C464FF6FF7E08BF6446A242C0F25D
:100D3000070E0CD13A6E22F000423A660A6802EAC7
:100D40000E03C2F3846C92FAA2F2B2FA82F57A6EC2
:100D50007A6E002BC2F384622C4608BF6446A2421E
:100D60000CD17A6E22F000427A660A6802EA0E031B
:100D7000C2F3846C92FAA2F2B2FA82F5BA6EBA6E3B
:100D8000002BC2F384622C4608BF6446A2420CD1F9
:100D9000BA6E22F00042BA660A6802EA0E03C2F393
:100DA000846C92FAA2F2B2FA82F5FA6EFA6E002B15
:100DB000C2F3846208BF6546AA4203D1FA6E22F0EC
:100DC0000042FA66BA68D20746D1D1F80080CA68F4
:100DD0004FF6FF74D7F8B060434602F01805C0F232
:100DE00007046FF3DF4324FA05F59E4305EA08057F
:100DF0002E430025C4F27F05AA42C7F8B06052D145
:100E000063B398FAA8F2B2FA82F2013202F01E033A
:100E1000092B02F01F032AD801229A4003EB430357
:100E200042EA03532FE000BF06220E6807EB83035C
:100E300002EA94021D6E4FF200040CFA02F2C0F2B4
:100E4000FF3406F0F846254032432A4342F0004280
:100E50001A66BA68D207B8D0002166E0012202EB18
:100E6000986202F01E030A2B02F01F03D4D3012262
:100E700000269A4003EB4303CFF6206606EB0353AC
:100E80001A4342F00073C3F3406607EB86068A6894
:100E90007569C3F3045307249C40A5439A402A4331
:100EA0007261D1F800800021C8F2080118EA010F30
:100EB00042D040F2083E4FF60051C5F2040ECFF684
:100EC000FF71DEF800305EF80110C90728D100215B
:100ED000CCF25271884503F0E07C08BF13F40001A6
:100EE0002CD00021CCF68431884508BF13F08071E6
:100EF0002AD00121C8F2000188454FF0000108BF47
:100F000013F4800211D1AEF5427297420DD1DEF892
:100F1000001021F0E07141EA0C0141F4800159E038
:100F2000416D41F0200141650121002280F85020EF
:100F3000084601B0BDE8F0810021F6E7AEF5427148
:100F40008F4207D00021F0E7AEF542718F4239D0D1
:100F50000021EAE7DEF8001042F6635221F0E0716A
:100F600041EA0C0141F40001CEF8001040F25801B2
:100F7000C2F200010968C0F23E528909A1FB0212C7
:100F8000910901EB41010C2202EB810100910099D2
:100F900021B3009901390091009909B300990139F1
:100FA00000910099F1B10099013900910099D9B1EE
:100FB000009901390091009900294FF00001E8D112
:100FC000B3E700BFDEF8001021F0E07141EA0C0148
:100FD00041F08071CEF800100021A6E70021A4E7BF
:100FE0000021A2E70021A0E700219EE7B0B582B072
:100FF0000446002001904CB1606D58B121688868AA
:10100000800012D48868C00019D54CE0012002B0DD
:10101000B0BD00BF204600F0E9F80020A06584F8CC
:101020005000216888688000ECD588684FF6C0724F
:10103000C5F6FF72104088608868C00033D44FF650
:10104000C0728868C5F6FF7202F18052104000F14C
:101050008050886040F25800C2F20000006842F6FA
:1010600063528009C0F23E52A0FB020290090222A4
:1010700002EB400001900198A8B100BF019801382F
:101080000190019878B1019801380190019850B110
:10109000019801380190019828B101980138019018
:1010A00001980028EAD18868C00009D4606D40F03A
:1010B00010006065A06D40F00100A065012000E017
:1010C00000208A68636D02F0040203F01003D21856
:1010D000626D71D122F48172023262658A68D20730
:1010E00012D140F208324FF60053C5F20402CFF697
:1010F000FF73D358DB0707D1D4F804C0136823F477
:101100007C1343EA0C031360627E636B43EA423252
:10111000D4E902C31A4394F8203042EA0C02012BAE
:1011200042EA034207D1D4F824C00023CFF6FE736D
:1011300003EB4C431A43A36A33B1D4F82CC003F435
:10114000707343EA0C031A43D1F80CC04CF2070346
:10115000CFF6F07303EA0C031A43CA608A688B68FF
:1011600002F0040203F00803D2182ED194F83030B4
:10117000227E5B0094F838C043EA823ECB6844F29A
:10118000020223EA020242EA0E02CA600A69BCF1C4
:10119000010F17D140F2FD7322EA030CD4E90F329C
:1011A000D4E911E543EA0C031A4342EA0E022A434A
:1011B00042F0010208E000BF42F010010120616529
:1011C00002B0B0BD22F001020A6122690B6B012A54
:1011D00023F00F0202D1E369013B1A430A63616DF8
:1011E000012262F30101616502B0B0BD10B59AB091
:1011F00004460020CDE91700684618303821FEF774
:10120000D2FF20680021C5F20401884202D01AB042
:1012100010BD00BF4FF480600090182001904FF483
:10122000003002904FF0007003904FF00050049097
:101230004FF0805005900F90684601F0D9FD0028CE
:1012400018BFFFF713FD4C20C5F60000016841F4FC
:1012500000510160016801F4005119911999016868
:1012600041F001010160006814A900F0010019902B
:1012700019984FF443701490032015900020169095
:101280004FF0904000F026F81AB010BD70B505463A
:1012900000F0ECF8691C044604D000F0EDF80544B9
:1012A00002E000BF4FF0FF3500F0E0F8001BA8425D
:1012B00028BF70BD4EF61056CEF20006306820F002
:1012C0000400306030BF00F0D1F8001BA842F5D315
:1012D00070BD00002DE9F04F81B00E68002E00F0C7
:1012E000BB8041F2000500F13843C4F60005072237
:1012F0004FEAB327A84208BF0422042F38BF4FEAA1
:10130000B322002300250024009209E00E68013476
:1013100036FA04F205F1040503F1020300F09C80A3
:10132000012202FA04FA16EA0A0EEFD0D1F804807C
:10133000032208F00309A9F1010702FA03FB012FB8
:101340006FEA0B0C12D8D0F808B0CA680BEA0C0B85
:101350009A4042EA0B028260426822EA0A0AC8F313
:101360000012A24042EA0A02426005E0B9F1030F0E
:1013700002D14FF0030922E0C2688F6802EA0C0232
:101380009F403A43B9F1020FC26018D16FF00302D7
:1013900002EA54020244D2F8208005F01C070F260E
:1013A000D1F810A006FA07F928EA09080AFA07F79F
:1013B00047EA08071762D1F8048008F003090268B9
:1013C00009FA03F702EA0C023A4318F4403F0260BC
:1013D0009CD040F2080824F00302C4F2010852F83D
:1013E00008C005F00C070F26BE402CEA060C009E34
:1013F00006FA07F747EA0C0742F8087040F60008BB
:10140000C5F60008D8F800C04F684CEA0E06FA028C
:1014100058BF2CEA0E06C8F80060D8F804C0BA021B
:101420004CEA0E0658BF2CEA0E06C8F80460D8F83D
:1014300080C0FA034CEA0E0658BF2CEA0E06C8F824
:101440008060D8F88420BF0342EA0E0658BF22EA23
:101450000E06C8F8846059E701B0BDE8F08F0000BF
:101460001823002A08BF2823C150704742F23C10BD
:10147000C2F200000068704740F22400C2F200008F
:101480000078704740F22400C2F2000040687047C4
:101490007047000041F20051C5F60001C8680A68B3
:1014A00082430A604860FFF7F3BF000090F84120D4
:1014B000202A03D190F84020012A01D10220704750
:1014C000242280F841200268136823F0010313608E
:1014D000136823F480531360136819431160116873
:1014E00041F001011160202180F84110002180F8B5
:1014F000401008467047000090F84120202A03D190
:1015000090F84020012A01D102207047242280F85F
:1015100041200268136823F001031360136823F469
:10152000706343EA01211160116841F0010111600B
:10153000202180F84110002180F8401008467047B3
:10154000002804BF0120704710B5044690F8410000
:1015500028B9002084F84000204600F081FA2420B9
:1015600084F8410094E80910E2680168012A21F03A
:101570000101016023F070610161816821F4004183
:10158000816003D14CF40041816009E04CF40441D6
:10159000022A816004D1416841F4006103E000BF88
:1015A000416821F400614160416804F1100C41F090
:1015B000007141F400414160C16821F40041C16003
:1015C0009CE80E10114341EA0321C160216A41EAFF
:1015D0000C010160016841F001010160002020213F
:1015E000606484F84110206384F8420010BD00005C
:1015F0002DE9F04F81B0044690F8410020280DD12C
:10160000DDF828B0BBF1000F0CD0DDF82C80B8F16C
:10161000000F07D094F8400001280BD1022001B040
:10162000BDE8F08F4FF400706064012001B0BDE8A8
:10163000F08F00BF01201D461746894684F8400000
:10164000FFF714FF216806468A69120447D4222056
:101650000C9A84F8410040204FF0000A84F84200C0
:10166000C4F844A0C4F824B0A4F82A80C4F834A074
:1016700049F6000390464A68CFF600436FF39F296E
:10168000E8B249EA00401A40104400F500504860B2
:101690002046414632469B4603F034FBA8B92068F9
:1016A000012D08D0390A816220464146324603F0B6
:1016B00029FB50B92068F9B28162204640210022FE
:1016C0004346009603F070FA50B384F840A001201E
:1016D00001B0BDE8F08F00BF88690004B7D520468F
:1016E0001921324603F0B2F900289ED1FFF7BEFE61
:1016F000801B21681A28EFD388690004ECD5606C40
:1017000040F020006064202084F84100002084F82C
:10171000420084F84000012001B0BDE8F08F00BF16
:10172000608D40F2000AB0F5807FC0F2FF1A09D345
:1017300020680AF5105350F8041F01EA0B02FF213C
:101740000BE000BF618D2068CBB250F8042F02EA95
:101750000B0242EA03420AF592331A4342EA0902B3
:10176000FF270BF580650260218510E0618D206800
:10177000218550F8042FC9B22A4042EA01414FF0B6
:101780000072114341EA09010160608D80B3204677
:10179000042100224346009603F006FA00287FF455
:1017A00044AF2068616A406A0870606A218D013028
:1017B0006062481E2085618D01396185618D002937
:1017C000E3D00004E1D12046802100224346009668
:1017D00003F0EAF900287FF428AF608DB0F5807F30
:1017E000C4D32068278550F8041F52462940C8E713
:1017F00020464146324603F047FA00287FF415AFF1
:1018000020682021C16142684EF60003CFF60063D4
:101810001A404260002084F8411084F8420084F8A5
:10182000400001B0BDE8F08F2DE9F04F81B00446D3
:1018300090F8410020280DD1DDF828B0BBF1000F51
:101840000CD0DDF82C80B8F1000F07D094F84000E0
:1018500001280BD1022001B0BDE8F08F4FF40070D9
:101860006064012001B0BDE8F08F00BF01201D467B
:101870001746894684F84000FFF7F8FD21680646C0
:101880008A6912044BD421200C9A84F8410040202C
:101890004FF0000A49F6004384F84200C4F844A01F
:1018A000C4F824B0A4F82A80C4F834A0CFF60043CA
:1018B00090464A689B466FF39F29E8B2A3F5806380
:1018C00049EA00401A40104440F0807040F4005053
:1018D000486020464146324603F014FAA8B9206811
:1018E000012D08D0390A816220464146324603F074
:1018F00009FA50B92068F9B281622046802100229D
:101900004346009603F050F950B384F840A00120FC
:1019100001B0BDE8F08F00BF88690004B3D5204650
:101920001921324603F092F800289AD1FFF79EFD64
:10193000801B21681A28EFD388690004ECD5606CFD
:1019400040F020006064202084F84100002084F8EA
:10195000420084F84000012001B0BDE8F08F00BFD4
:10196000608D0025B0F5807FC0F2FF1508D3206898
:101970002B4650F8041F01EA0B02FF210BE000BFC9
:10198000618D2068CBB250F8042F02EA0B0242EAC4
:1019900003424FF000731A4342EA0902FF27026034
:1019A000218511E0618D2068218550F8042FC9B28E
:1019B00002EA0B0242EA01414FF00072114341EA90
:1019C00009010160608D78B320464146324603F03C
:1019D00099F900287FF445AF606A216810F8012B5F
:1019E0008A626062608D01386085208D01382085B3
:1019F000618D0029E6D00004E4D120468021002238
:101A00004346009603F0D0F800287FF42AAF608D9B
:101A1000B0F5807FC6D32068278550F8041F2A467A
:101A200001EA0B01CAE700BF20464146324603F0F7
:101A30002BF900287FF415AF20682021C16142688E
:101A40004EF60003CFF600631A404260002084F88F
:101A5000411084F8420084F8400001B0BDE8F08FE6
:101A6000B0B59AB00446684604304C21FEF79BFBA3
:101A7000206845F20041C4F20001884202D01AB049
:101A8000B0BD00BF4FF44030042408906846009475
:101A900001F0AEF9002818BFFFF7E8F84C25C5F6AD
:101AA0000005286814A940F002002860286800F0AA
:101AB0000200149014984FF4407014901220159066
:101AC0000020CDE9160040F20040C4F60000189452
:101AD000FFF700FCE86840F40010E860E86800F4F4
:101AE0000010199019981AB0B0BD0000002804BF6A
:101AF0000120704710B5044690F8380010B9204610
:101B000000F028F840F60041C5F6000100204FF033
:101B10003F1208604A603F228A600A6842F0011260
:101B20000A6041F6A531C0F6000141F6A932C0F6BF
:101B30000002C4E90111C4E90311C4E9051101213E
:101B4000C4E90722C4E90922C4E90B22606384F8CE
:101B5000381010BD80B582B05021C5F60001006874
:101B600001F53B6290421CBF02B080BD08680022B4
:101B700040F4801008600868002100F48010019093
:101B800001982C2000F0CAF82C2000F09FF82D209E
:101B90000021002200F0C2F82D2002B0BDE88040F4
:101BA00000F094B8704700007047000040F2240035
:101BB00042F23C11C2F20000C2F2000100780A6851
:101BC000104408607047000080B544F20000C5F67C
:101BD0000000016841F480710160032000F0CAF840
:101BE0000F2000F009F800281CBF012080BD00F084
:101BF00027F8002080BD000070B540F22406C2F234
:101C000000063178D1B1044601F05CFC31784FF424
:101C10007A72B2FBF1F1B0FBF1F002F055FA0F2C41
:101C20004FF0010508D838B94FF0FF3021460022A7
:101C3000002500F073F87460284670BD012070BD67
:101C400080B582B05020C5F600000168002241F442
:101C5000002101600068002100F40020019001983B
:101C60002E2000F05BF82E2002B0BDE8804000F08E
:101C70002DB80000002848BF7047C1B200F01F0017
:101C8000012202FA00F04EF28022CEF2000242EA75
:101C9000D10121F00301086070470000002848BF0F
:101CA0007047C1B200F01F00012202FA00F04EF2AC
:101CB0008012CEF2000242EAD10121F00301086055
:101CC000BFF34F8FBFF36F8F70470000002848BFEE
:101CD0007047C1B200F01F00012202FA00F04EF27C
:101CE0000012CEF2000242EAD10121F003010860A5
:101CF00070470000002848BF7047C1B200F01F00C5
:101D0000012202FA00F04EF20022CEF2000242EA74
:101D1000D10121F0030108607047000010B54EF6B4
:101D20000C5CCEF2000CDCF80030C3F3022E8EF017
:101D30000704042C28BF0424BEF103034FF0FF3E28
:101D40000EFA04F438BF0023A14399400EFA03F3BE
:101D50009A43114300F00F0200F160430901043A75
:101D600003F564436244002848BF02F10C03197074
:101D700010BD00004EF60C51CEF200010A684FF67D
:101D8000FF031A4060F30A2242F0806040F0FD70C9
:101D90000860704701220168C0F8D022002280F854
:101DA000C822B1F8540040F00100A1F85400B1F885
:101DB000540040F002020020A1F8542070470000B7
:101DC00010B50129044613D011BB607A48B103F065
:101DD00091FE4EF61050CEF20000016821F006018F
:101DE0000160D4F8D802BDE8104004F09DBE00BFE9
:101DF000D4F8D80204F01CFF607A002808BF10BD98
:101E00004EF61050CEF20000016841F0060101606C
:101E100010BD000080B501F0070C0CEB8C0C00EB42
:101E2000CC0C01EB810E0CF1100C00EBCE0009067E
:101E300058BF00F5A87C0020002A19BFCCF8083054
:101E40000121ACF8063000218CF80C1080BD000098
:101E500001EB8102D0F8D83200EBC200426A18468A
:101E600004F006BD01EB8102D0F8D83200EBC200CD
:101E7000D0F86421184604F059BD000010B504469E
:101E800048B2B0F1FF3F01F0070000EB800104EB26
:101E9000C10205DD02F5A871002382F8513103E08B
:101EA000012302F11001537494F890220870012A62
:101EB00004BF022010BD2068012284F8902205F0A2
:101EC00047FB002084F8900210BD0000B0B5044626
:101ED000007901F00F02824284BF0120B0BD48B2F8
:101EE000B0F1FF3F01F0070000EB800104EBC102FD
:101EF00006DD02F5A871002382F8513104E000BF2D
:101F0000012302F11001537494F890220025012A54
:101F10008D70087004BF0220B0BD2068012284F8D3
:101F2000902205F0A9FB284684F89052B0BD00002D
:101F300001F0070101EB810100EBC100D0F86C0159
:101F40007047000070B5064648B2B0F1FF3F01F09F
:101F5000070000EB800107DD06EBC10404F5A87162
:101F6000002584F8515106E006EBC10C01240CF168
:101F700010018CF811406FF3DF2208700A61022B08
:101F8000CB7004BF0020087196F89002012804BFAE
:101F9000022070BD3068012286F8902205F068F9B1
:101FA000002086F8900270BD10B501F0070C0CEB14
:101FB0008C0100EBC10E00680EF5A8710024CEF86C
:101FC0006421CEF86831CEF86C418EF851418EF81C
:101FD00050C105F0A9FB002010BD000010B502792A
:101FE000044601F00700904284BF012010BD4AB2B0
:101FF000B2F1FF3F0ADD01EB810104EBC10202F502
:10200000A871002382F8513108E000BF00EB800185
:1020100004EBC102012302F11001537494F89032D1
:102020000122012B8A70087004BF022010BD2068B5
:1020300084F8902205F05EFB002084F8900210BD29
:1020400080B501F0070C0CEB8C0100EBC10101F82D
:1020500010CF00684FF0010C01F1140781F824C083
:102060004FF0000E87E80C400B6281F801C005F0CC
:102070005BFB002080BD00002DE9F04F83B00446DB
:10208000006805F0B9FE01041CD441052CD44104BC
:102090003CD4810400F10684C10400F10D840105E3
:1020A00000F14C84010600F15F84810500F16C842D
:1020B000C00527D52068B0F8441021F48071A0F83D
:1020C00044101FE02068B0F94410B1F1FF3F19DC63
:1020D0004CF2800104F5267240F60F7BA1F5805189
:1020E0000292019140E000BF2068B0F8441021F452
:1020F0008061A0F84410204600F0C8FD94F89002DA
:1021000001280DD103B0BDE8F08F00BF2068B0F802
:10211000441021F48041A0F8441003B0BDE8F08FD2
:102120000120002584F8900225732068002105F025
:10213000B5FE84F8905203B0BDE8F08FB0F85010AF
:1021400098F80020084400EBC2000021A0F8061413
:1021500098F800102046FFF77BFE00BF2068B0F91A
:102160004410B1F1FF3FCDDCB0F8442012F00F086D
:102170000CD030F928104FEA480AB1F1FF3F1FFA9E
:1021800081F92DDD5FEA0960E8D55FE10188D206BB
:102190006AD401EA0B0101F500410180B0F850104A
:1021A000227C084400EBC200B0F80204616A6FF3BD
:1021B0009F20E0620844606220460021FFF748FE4D
:1021C000207B0028CAD0A06A0028C7D1207B2168C4
:1021D00040F08000C0B2A1F84C0000202073BDE7A1
:1021E00030F81A1040F60F7C01EA0B01803120F81C
:1021F0001A1008EB880104EBC10B9BF85C110BF57E
:10220000A876002900F082809BF85311022940F043
:102210008F80B0F850703178DBF8683107440BF5E7
:10222000B4725FEA494507EBC10700F19B80B7F83C
:10223000067400256FF39F27DB1B38BF2B46136006
:1022400040F2A6805FEA496200F1B28030F82120B6
:1022500048F2C00302EA0C021A4320F82120002FA2
:1022600040F0A780CCE000BF0A052FD409B2B1F13D
:10227000FF3F3FF773AF018801EA0B018031018016
:10228000B0F8501094F85021014401EBC201B1F8AC
:1022900006346FF39F23002BC4F86C3100F01E82CC
:1022A000D4F8641100293FF459AFB4F8562105F071
:1022B000A7FDD4F86401D4F86C110844C4F8640193
:1022C00020460021FFF7CEFD48E700BFB0F85010D0
:1022D00094F85021014401EBC201B1F806146FF3E8
:1022E0009F210829C4F86C1140F00C83B4F85621E2
:1022F0000299082305F084FD2068018801EA0B019A
:1023000080310180204600F0FFFC27E7B0F8501034
:102310003278014401EBC201B1F806746FF39F27D4
:10232000002F6DD0DBF86411BBF8562163E000BFCD
:10233000327848F2C00330F8221001EA0C01194348
:1023400020F8221030F82230B0F8501000EBC20212
:102350005B04114416D4B1F806746FF39F2747BB92
:102360004EE000BFB7F8027400256FF39F27DB1B18
:1023700038BF2B46136021D95FEA49622DD4B7BB21
:102380003EE000BFB1F802746FF39F277FBB37E0D8
:1023900030F8212043F60F731A404CF28003A3F566
:1023A00000535A4020F821205FEA49627FF54EAF82
:1023B00037B3DBF86411BBF85A211CE030F8212058
:1023C00043F60F731A404CF28003A3F500535A40B2
:1023D00020F821205FEA4962D1D530F8212048F267
:1023E000C00302EA0C021A4320F8212047B1DBF8AF
:1023F0006411BBF858213B4605F002FD01E000BF27
:102400000027DBE95A103844CBF86C0119B1DBF82E
:102410006001B8420AD931782046FFF723FD40F623
:102420000F7B5FEA09607FF599AE0FE0DBF864018E
:10243000C1192068CBF86411314605F075F940F6F2
:102440000F7B5FEA09607FF589AE00BF206808EB6B
:10245000880130F81A2004EBC10502EA0B0101F5EE
:10246000004120F81A10EF7C05F11008012F23D14C
:10247000297F00294FF00001A9623FF469AE5FEAAD
:10248000496100F18780697C01293FF457AE00293A
:102490007FF45EAEB0F8501098F80020084400EBCE
:1024A000C200B0F806146FF39F21A0F80614B0F82C
:1024B000061441F4004149E65FEAC9511ED4B0F860
:1024C000502098F80010024402EBC102B2F8022436
:1024D000AB6A6FF39F229B1A4FF0000738BF3B4651
:1024E000AB627FF637AE696AEB6A1144696299188C
:1024F000E962414605F018F930E600BFB0F850A097
:1025000098F800102A4652F8286F5FEA496300EBFA
:10251000C10E59D40EF2064C3CF80AA000236FF30A
:102520009F2AB6EB0A0638BF1E46166040F2868028
:102530005FEA494208D430F821204CF2800702EAD1
:102540000B023A4320F821202A4612F8341F0129B1
:1025500040F098812E4656F8307F56E904E156F84F
:10256000049C5144D144774546F80C1C46F8049C21
:1025700080F00681002F00F04B810023BE463360BF
:1025800013706A7C012A40F00281B0F850202CF8C8
:1025900002E05EE1697C012900F0948000297FF46B
:1025A000D7ADB0F8501098F80020084400EBC200F6
:1025B000B0F802146FF39F21A0F80214B0F80214CF
:1025C00041F4004186E000BF0EF2024C3CF80AA044
:1025D00000236FF39F2AB6EB0A0638BF1E4616602B
:1025E0004ED95FEA494208D530F821204CF28007E5
:1025F00002EA0B023A4320F821202E4616F8341F37
:10260000012940F03F812A4652F830EF52E9047127
:1026100052F8049C5144D144BE4542F80C1C42F887
:10262000049C80F0CD804FF00009BEF1000F86F8C9
:10263000009040F0C880D646C7E000BF6A7C012AFF
:1026400054D0002A5CD1B0F850207244B2F8023461
:102650006FF39F23A2F80234B2F8023443F400432C
:10266000A2F80234B0F850203CF802306FF39F23F8
:102670002CF802303CF8023043F400433EE000BF47
:102680006A7C012A52D0002A5AD1B0F850203CF876
:1026900002306FF39F232CF802303CF8023043F4F1
:1026A00000432CF80230B0F850207244B2F80634DF
:1026B0006FF39F23A2F80634B2F8063443F40043C4
:1026C0003CE000BFB0F8501098F80020084400EB40
:1026D000C2000021A0F802143AE500BF018843F6C9
:1026E0000F721140019A5140018037E5B0F8502037
:1026F00000237244A2F80234B0F850202CF80230C3
:10270000022F0AD130F8212040F63F731A4048F2D8
:10271000C003203B5A4020F821202046FFF798FBB9
:102720005FEA49403FF51AAD1EE000BFB0F8502007
:1027300000232CF80230B0F850207244A2F806347E
:10274000022F0AD130F8212040F63F731A4048F298
:10275000C003203B5A4020F821202046FFF778FB99
:102760005FEA49407FF5FAAC206898F800104CF217
:10277000800330F8212002EA0B021A438EE000BFEA
:10278000A7EB0E0232606A7C012A3FF4FEAE002AFB
:102790005FD1B0F85030BEF1000F3CF803206FF36A
:1027A0009F222CF803203BD0BEF13E0F40D80EF004
:1027B000010233F80C6002EB5E0246EA822246E038
:1027C000AEEB0709BE46C2F800906A7C012A19D018
:1027D000002A52D1B0F85030BEF1000F3CF803206F
:1027E0006FF39F222CF803201ED0BEF13E0F33D88A
:1027F0000EF0010233F80C6002EB5E0246EA822220
:1028000039E000BFB0F850202CF802E035E000BFFE
:1028100000271770D6466A7C012AB8D1B5E600BFFA
:1028200033F80C2011E000BF33F80C2021E000BF8A
:102830005FEACE664FEA5E1233F80C604FF0FF3766
:1028400008BF07EB5E1246EA822242F4004223F8F8
:102850000C206A8B12E000BF5FEACE664FEA5E1280
:1028600033F80C604FF0FF3708BF07EB5E1246EA03
:10287000822242F4004223F80C202A8B1FFA8EF3A6
:1028800005F014FB206898F8001040F63F7330F80C
:1028900021201A4048F2C003103B5A4020F8212062
:1028A0005CE400BF2068B0F8441021F40051A0F8A7
:1028B000441003B0BDE8F08F2068B0F8401021F05C
:1028C0000401A0F84010B0F8401021F00801A0F871
:1028D000401094F8C802012806D1002084F8C802EC
:1028E00020460021FFF76CFA204600F0E1F920684D
:1028F000B0F8441021F48051A0F8441003B0BDE8B2
:10290000F08F00BF018843F60F7248F2C0031140F8
:1029100003F57C6251400180018840F63F7211400E
:10292000A3F1300251400180018840F60F7211403E
:102930008031018003B0BDE8F08F00BF2168B1F89D
:10294000400040F00800A1F84000B1F8440020F435
:102950000060A1F84400B1F8400040F004022046B5
:10296000A1F840200BE000BF2068B0F8441021F02F
:102970008001A0F8441094F8C81299B1204603B021
:10298000BDE8F04F00F0DEB92168B1F8440020F452
:1029900000722046A1F8442003B0BDE8F04F00F0DB
:1029A0009BB900BFB0F8401041F00401A0F84010FE
:1029B000B0F8401041F00801A0F84010012184F85F
:1029C000C812B0F854003C2101EA900220460121CF
:1029D000C4F8CC2203B0BDE8F04FFFF7F1B9000016
:1029E000F0B581B0002800F00381044690F8910210
:1029F00028B9002084F89002204600F0FDF803205A
:102A000084F89102206804F02DFE2179002900F05D
:102A1000DD80A1F1010E01F0030CBEF1030F4FF0B8
:102A2000000334D301F0FC0004F1A00201260025CC
:102A30006F1C02F8687CAF1C02F8905C02F8407CC6
:102A4000EF1C043502F88F6C02F88D3C42E920330C
:102A500042F8783C02F8676C02F8653C42E91633AC
:102A600042F8503C02F83F6C02F83D3C42E90C331E
:102A700042F8283C02F8176C02F8187C02F8153C62
:102A800042E9023342F8A03B8542D1D12B46BCF14A
:102A9000000F29D003EB830004EBC00501220020C6
:102AA000BCF1010F6A742B74E874C5E90800A862D0
:102AB0001AD05D1C05EB850604EBC606BCF1020FBF
:102AC00072743574F074C6E90800B0620CD0981CBA
:102AD00000EB800204EBC202012310740020537447
:102AE000D074C2E90800906200296FD0BEF1030FD4
:102AF0004FF0000233D301F0FC0004F5F071002325
:102B00005F1C01F8687C9F1C01F8903C01F8407C38
:102B1000DF1C043301F88F2C01F88D2C41E92022B1
:102B200041F8782C01F8672C01F8652C41E9162250
:102B300041F8502C01F83F2C01F83D2C41E90C22C2
:102B400041F8282C01F8172C01F8187C01F8152CF5
:102B500041E9022241F8A02B8342D1D11A46BCF1AF
:102B6000000F33D002EB820004EBC0010020BCF167
:102B7000010F81F8510181F8502181F85301C1E919
:102B80005800C1F8680121D0511C01EB810304EB0E
:102B9000C303BCF1020F83F8510183F8501183F88D
:102BA0005301C3E95800C3F868010FD0901C00EB33
:102BB000800104EBC101002281F8512181F850010C
:102BC00081F85321C1E95822C1F8682194E807002F
:102BD00004F03AFD00200121207384F89112A17ABB
:102BE000012903D12046FFF7D5F8002001B0F0BD40
:102BF000012001B0F0BD000010B59AB0044668464F
:102C000004304C21FDF7CFFA206846F60001C4F2EB
:102C10000001884202D01AB010BD00BF4FF480708E
:102C20000090684600F0E4F8002818BFFEF71EF890
:102C30004C24C5F60004206814A940F0010020606F
:102C4000206800F00100149014984FF4C0501490C4
:102C5000022015900020CDE916000A2018904FF0B0
:102C60009040FEF737FBE068002140F08060E060B4
:102C7000E068002200F08060199019981420FFF796
:102C80004DF81420FFF722F81AB010BD10B5044615
:102C90004079022818BFFDF7E9FFD4F8D8020121D6
:102CA00003F05AFFD4F8D802BDE8104003F008BF83
:102CB00010B50446407A48B14EF61050CEF20000EE
:102CC000016821F00601016002F014FFD4F8D80277
:102CD000BDE8104003F028BFD0F8D80203F02EBFA3
:102CE00010B5044690F89002012804BF022010BDE0
:102CF000012084F890022173206805F0CFF80020AD
:102D000084F8900210BD0000D0F8D82200F526719A
:102D1000104603F037BF000010B5044690F890024B
:102D2000012804BF022010BD2068012184F8901200
:102D300005F052F8206804F07DFC002084F8900231
:102D400010BD000010B50446D0F8D80203F070FFA3
:102D5000607A002808BF10BD4EF61050CEF2000079
:102D6000016841F00601016010BD000040F204401E
:102D7000C5F60000016841F4806101607047000001
:102D800040F20040C5F60000006800F4C0607047E3
:102D900040F20040C5F60000016841F48071016016
:102DA000704700003821C5F600010A6842F08072C1
:102DB0000A600A6822F080720A6090E80E101143DF
:102DC0001943026941EA0C0141EA024146F200025C
:102DD000C4F2000251601168406921F47C5141EA5B
:102DE00000201060106840F0600010607047000024
:102DF0002DE9F04381B00446007888274006C5F6E7
:102E0000000717D5206B6FF0010101EBB0510229CB
:102E10000BD34FEAB05100294CD0012960D157F8AB
:102E20007C1C41F4803147F87C1C396821F4400156
:102E3000084338604FF00009607800072AD5B86869
:102E4000216C00F440758D4224D0FFF7A1FF002DC6
:102E50004AD0B868B96820F4407041F48031B96054
:102E6000B96821F48031B960216C0843B860B86852
:102E7000C0070FD0FEF7FAFA064641F2893500BFC7
:102E8000B868800706D4FEF7F1FA801BA842F7D392
:102E90004FF003092068C1072FD1810735D4C1063F
:102EA0003BD4810645D441074FD401075BD4C0050C
:102EB00067D4B6E04FF0B046306820F080603060F4
:102EC000FEF7D4FA054600BF3068000140F12C81BE
:102ED000FEF7CCFA401B0228F6D94FF00309ABE706
:102EE0004FF00109A8E700BF206CB96821F44071D8
:102EF0000843B8602068C107CFD0A1693A6822F0C2
:102F00000302114339608107C9D5E1693A6822F4A7
:102F1000406211433960C106C3D5A16A3A684FF6D1
:102F2000FF7363EA01031A4042EA014139608106F6
:102F3000B9D5E16A3A684FF6FF7363EA01031A40B4
:102F400042EA014139604107AFD5216A3A686FF41E
:102F50007F2363EA11131A4001F47F4142EA011111
:102F600039600107A3D5616A3A686FF47F2363EA89
:102F700011131A4001F47F4142EA01113960C00582
:102F80004FD5606B3968B0F1806F21F0406141EA44
:102F9000000139600CD0B0F1006F42D157F87C0CC1
:102FA00040F0807047F87C0C2068810560D53BE0DC
:102FB0004FF0B045286820F080602860FEF756FA90
:102FC000064600BF2868000106D5FEF74FFA801BB1
:102FD0000228F7D923E000BF57F8780C616820F485
:102FE000FE4040EA0120E26847F8780C57F8780C78
:102FF0004FF0B04520F06060104347F8780C286827
:1030000040F080602860FEF731FA0646286800012B
:1030100000F1B280FEF72AFA801B0228F6D94FF0A1
:1030200003092068810523D5A16B6FF04042B1F1FF
:10303000004F0DD061B1B1F1804F0B4609D03A6815
:1030400021F0805322F040423A606FF0406200E08D
:103050000B463E68B1F1C05F02EA060242EA030293
:103060003A6005D157F87C1C41F0807147F87C1C10
:1030700040054FD5E06B3968B0F1805F21F04051D9
:1030800041EA000139600DD0B0F1005F42D157F83C
:103090007C0C40F4803047F87C0C2068C10400F1BF
:1030A00080803AE04FF0B045286820F080602860CA
:1030B000FEF7DCF9064600BF2868000106D5FEF7DA
:1030C000D5F9801B0228F7D922E000BF57F8780C09
:1030D000616820F4FE4040EA0120226947F8780C3C
:1030E00057F8780C4FF0B04520F06040104347F897
:1030F000780C286840F080602860FEF7B7F9064633
:103100002868000144D4FEF7B1F9801B0228F7D9E2
:103110004FF003092068C10443D4800449D44846D1
:1031200001B0BDE8F08300BF57F8780CD4E9011274
:1031300020F4FE4040EA012047F8780C57F8780C5C
:103140004FF0B04820F47810104347F8780CD8F8C6
:10315000000040F08060C8F80000FEF787F90646DE
:103160004FF00309D8F80000000137D4FEF77EF9CC
:10317000801B0228F6D95FE6606957F8781C08437F
:1031800047F8780C206881057FF572AF4CE700BFE7
:10319000606957F8781C084347F8780C2068C10428
:1031A000BBD5616CFA6822F440421143F960800497
:1031B000B5D5D4E9120157F8642C22F0300211433E
:1031C00047F8641C57F8641C21F00301084347F8D2
:1031D000640C484601B0BDE8F08300BF57F8781C86
:1031E0006269206B114347F8781C1EE62DE9F04315
:1031F00081B0002800F0CB8044F20008C5F600083A
:103200000546D8F800000C4600F00700884215D2A9
:10321000D8F8000020F007002043C8F80000FEF7AF
:1032200025F90646D8F8000000F00700A04205D0B6
:10323000FEF71CF9801B0228F4D977E028680827DC
:103240008107C5F6000714D5A868396821F0F00198
:1032500008433860FEF70AF9064600BF3868C00325
:1032600006D4FEF703F9801B0228F7D95EE000BF01
:103270002868810615D56869D7F8001121F0F0019A
:103280000843C7F80001FEF7F1F80646D7F8000139
:10329000800305D4FEF7EAF8801B0228F6D945E042
:1032A0002868410617D5A869D7F8001121F00F0149
:1032B00041EA1010C7F80001FEF7D8F8064600BF33
:1032C000D7F80001C00305D4FEF7D0F8801B022810
:1032D000F6D92BE02868410713D5E868396821F44E
:1032E000E06108433860FEF7C1F80646386880039D
:1032F00006D4FEF7BBF8801B0228F7D916E000BF02
:103300002868010717D52869396821F4605141EA16
:10331000C0003860FEF7AAF8064600BF38684003D0
:1033200008D4FEF7A3F8801B0228F7D9032001B0C8
:10333000BDE8F0832868C0071ED1D8F8000000F06F
:103340000700A04228D9D8F8000020F00700204349
:10335000C8F80000FEF78AF8054600BFD8F800005C
:1033600000F00700A04217D0FEF780F8401B0228AB
:103370004FF00300F2D947E068684FF0B04138B32E
:10338000032845D0022847D10968890323D40120A6
:1033900001B0BDE8F08300BF386800F00C0142F2D4
:1033A00000400829C0F2F4003AD0042972D0002964
:1033B00040D14FF0B040006849F67C7100F0F00059
:1033C000B02828BFB0208008C0F60001085861E08E
:1033D00009688907DBD5396821F0030108433860A3
:1033E000FEF744F8064641F2883900BF386869683C
:1033F00000F00C00B0EB810F9FD0FEF737F8801B78
:1034000048454FF00300F1D901B0BDE8F08300BF9B
:1034100009688901BBD5DEE709684905B7D5DAE750
:103420004FF0B0410968C9025CBF44F60000C0F229
:10343000E8102FE0796801F0030102291AD003296E
:103440000AD14FF0B0410968C9025CBF44F60000E0
:10345000C0F2E8100EE000BF4FF0B040006849F63F
:103460007C7100F0F000B02828BFB0208008C0F6C2
:103470000001085879687A68C1F306214843C2F30D
:1034800002110131B0FBF1F07968012202EB5171B8
:10349000B0FBF1F039683C2202EA910149F63C7236
:1034A000C0F600025158B0FBF1F040F25801C2F2F0
:1034B00000010860FDF7E6FF01B0BDE8F043FEF74C
:1034C0009BBB00000C20C5F6000050F8041C01F066
:1034D0000C0242F20041082AC0F2F40112D0042A80
:1034E0004AD0CAB94FF0B041096849F67C7201F080
:1034F000F001B02928BFB0218908C0F60002515858
:103500003AE000BF4FF0B0421268D2025CBF44F60E
:103510000001C0F2E8112FE0026802F00302022A63
:103520001AD0032A0AD14FF0B0421268D2025CBF0F
:1035300044F60001C0F2E8110EE000BF4FF0B041C8
:10354000096849F67C7201F0F001B02928BFB0216A
:103550008908C0F60002515802680368C2F30622C7
:103560005143C3F302120132B1FBF2F102680123AD
:1035700003EB5272B1FBF2F150F8040C3C2202EA68
:10358000900049F63C72C0F600021058B1FBF0F012
:1035900070470000F0B581B0002800F05583044664
:1035A000007894268006C5F6000659D42078C00716
:1035B00013D056F88C0C00F00C0156F8880C082932
:1035C00007D00C2940F0E08000F00300032840F011
:1035D000DB806068002800F03783207880071CD5E6
:1035E00056F88C0C00F00C0156F8880C042907D012
:1035F0000C2940F0EB8000F00300022840F0E68048
:10360000E068002800F02083206956F8901C21F023
:10361000FE4141EA006046F8900C216811F0180F55
:1036200000F07C8162693068002A00F09B8011F014
:10363000100140F0B58040F001003060FDF716FF4A
:10364000054600BF3068800700F12681FDF70EFFB8
:10365000401B02284FF00300F4D901B0F0BD00BFB9
:1036600056F88C0C10F00C0156F8880C05D00C297B
:103670002AD100F00300012826D1E069002800F0DB
:10368000E3824FF0B041606A0A6802F0F002B02AAB
:1036900028BFB022904231D901F0AEFE002840F0A0
:1036A000D3824FF0B042D4E90801136823F0F0034D
:1036B0001943116056F8901C21F47F4141EA002023
:1036C00046F8900C2DE000BFE1694FF0B047386834
:1036D000002900F0958040F001003860FDF7C6FE3B
:1036E000054600BF3868800700F1B080FDF7BEFED8
:1036F000401B02284FF00300F4D9AEE70A6822F01D
:10370000F00202430A60216A56F8902C22F47F42AC
:1037100042EA012146F8901C01F06EFE002840F0BC
:10372000938256F88C0C00F00C0142F200400829FC
:10373000C0F2F40000F00082042900F06A8200293F
:1037400040F004824FF0B040006849F67C7100F010
:10375000F000B02828BFB0208008C0F6000108584B
:1037600057E200BF20F004003060FDF77FFE054601
:103770003068000740F17C80FDF778FE401B03288D
:103780004FF00300F4D968E761684FF0B040026879
:10379000B1F5803F40F0908042F48031016091E0CB
:1037A00080073FD4306840F001003060FDF75EFED6
:1037B000054600BF3068800734D4FDF757FE401B34
:1037C00002284FF00300F5D947E700BFE1684FF04A
:1037D000B0473868002900F09D8140F4807038605F
:1037E000FDF744FE054600BF386840053FF50CAFC5
:1037F000FDF73CFE401B02284FF00300F4D92CE7F4
:1038000020F001003860FDF731FE0546386880077A
:103810007FF5CCAEFDF72AFE401B02284FF00300D7
:10382000F4D91AE7306840F004003060FDF71EFE5E
:10383000054600BF3068000756D4FDF717FE401B51
:1038400003284FF00300F5D907E700BF4FF0B0425F
:10385000D4E90801136823F0F0031943116056F806
:10386000901C21F47F4141EA002046F8900C9DE62F
:10387000306820F001003060FDF7F8FD054600BF1C
:10388000306880074AD5FDF7F1FD401B02284FF054
:103890000300F5D9E1E600BF306820F00400306095
:1038A000306800073AD5FDF7E1FD401B03284FF0D3
:1038B0000300F5D9D1E600BF22F48032002902606E
:1038C00000F05681FDF7D2FD05464FF0B04700BF2E
:1038D000386880033FF581AEFDF7C8FD401B6428C2
:1038E0004FF00300F4D9B8E6A069316821F47061A3
:1038F00041EA00203060306820F001003060FDF7C0
:10390000B5FD05463068800708D5FDF7AFFD401BC3
:1039100002284FF00300F5D99FE600BF207840074A
:1039200052D42078400677D4E06A002800F0C081A5
:1039300056F88C2C56F8881C022802F00C0040F037
:103940008180226B01F00303934240F09380626B0D
:1039500001F07003934240F08D80A26BC1F3062307
:10396000934240F08780E26B01F47813934240F079
:103970008180226C01F06063934240F07B80626C36
:1039800001F06041914275D14FF0B0452868800147
:1039900000F18E81286840F08070286056F8880C0D
:1039A00040F0805046F8880CFDF760FD044628681A
:1039B000800100F17D81FDF759FD001B02284FF0C9
:1039C0000300F4D949E600BFD6F86C03C00511D452
:1039D000FFF7DEF9FDF74AFD054600BFD6F86C0398
:1039E000C00507D4FDF742FD401B02284FF003003D
:1039F000F4D932E6A068012807D0052868D156F826
:103A0000040C40F0040046F8040C56F8040C40F096
:103A1000010046F8040C69E0A16A7068002945D0ED
:103A200040F001007060FDF721FD054670688007D9
:103A30003FF57AAFFDF71AFD401B02284FF0030057
:103A4000F4D90AE60C2800F0FF804FF0B045286852
:103A500020F080702860FDF709FD04462868800189
:103A600040F1AA80FDF702FD001B02284FF0030081
:103A7000F4D9F2E50C2800F0E7804FF0B047386841
:103A8000400100F1E180386820F080703860FDF777
:103A9000EDFC05463868800140F1DA80FDF7E6FC70
:103AA000401B02284FF00300F4D9D6E520F00100B6
:103AB0007060FDF7DBFC0546706880077FF534AF6A
:103AC000FDF7D4FC401B02284FF00300F4D9C4E5F5
:103AD00056F8041C002821F0010146F8041C56F891
:103AE000041C21F0040146F8041C53D0FDF7BEFC71
:103AF000054641F2883700BF56F8040C80073FF5B1
:103B000010AFFDF7B3FC401BB8424FF00300F3D9F0
:103B1000A3E500BF20F480703860FDF7A7FC0546E0
:103B2000386840057FF579ADFDF7A0FC401B022801
:103B30004FF00300F4D990E54FF0B0410968C90295
:103B40005CBF44F60000C0F2E81062E056F8881C42
:103B500001F00301022949D0032939D14FF0B041C6
:103B60000968C9025CBF44F60000C0F2E8103DE0FD
:103B7000FDF77CFC05464FF0B047386880037FF5C1
:103B80002CADFDF773FC401B64284FF00300F4D903
:103B900063E500BFFDF76AFC054641F2883756F839
:103BA000040C80077FF5BDAEFDF760FC401BB842FA
:103BB0004FF00300F3D950E556F8880C4FF6FC712E
:103BC000CEF6FE61084046F8880C002001B0F0BD3A
:103BD0004FF0B040006849F67C7100F0F000B0286A
:103BE00028BFB0208008C0F60001085856F8881C8D
:103BF00056F8882CC1F306214843C2F30211013163
:103C0000B0FBF1F056F8881C012202EB5171B0FBB9
:103C1000F1F056F88C1C3C2202EA910149F63C7204
:103C2000C0F60002515840F25802B0FBF1F140F2E8
:103C30002800C2F200000068C2F200021160FDF725
:103C4000DBFF00283FF4B2AC012001B0F0BD00BFA3
:103C500056F8880C48F28C01C1F2C11104F130070A
:103C600008408ECFD4E910540843104340EA0320A3
:103C700038432843204346F8880C4FF0B045286865
:103C800040F08070286056F8880C40F0805046F86C
:103C9000880CFDF7EBFB04462868800108D4FDF78B
:103CA000E5FB001B02284FF00300F5D9D5E400BF67
:103CB000002001B0F0BD000010B581B040F2580303
:103CC000C2F20003D3F800C044F6D353C1F262033A
:103CD000ACFB033C4FEADC2C4FF47A730CFB03FE85
:103CE000CDF800E090F820304FF0020C012B00F0EE
:103CF000898080F821C00468CA2363625323636209
:103D0000A3685B0552D4A36823F48063A360E368CF
:103D100063F4906323F48063E360CDF800E0009BDC
:103D2000013B0093009B002B62D0E3685B071AD431
:103D3000009B013B0093009B002B59D0E3685B077D
:103D400011D4009B013B0093009B002B50D0E368F3
:103D50005B0708D4009B013B0093009B002B47D0DE
:103D6000E3685B07DBD5A3684FF0000C23F0070383
:103D7000A360A3681A43A260616140F60001C5F622
:103D80000001D1F8802042F40022C1F880200A68A6
:103D900042F400220A60A16841F48041A160A16858
:103DA00041F48061A160012125E000BF009B013B3F
:103DB0000093009BE3B1E3685B07A4D5009B013B44
:103DC0000093009BA3B1E3685B079CD5009B013B7C
:103DD0000093009B63B1E3685B0794D5009B013BB4
:103DE0000093009B23B1E3685B07DFD48BE700BF40
:103DF00003214FF0030CFF22626280F821100021A2
:103E000080F82010604601B010BD0000B0B5002859
:103E100062D0044690F8210028B9002084F82000E0
:103E2000204600F077F8022084F821002168C86855
:103E3000C0065FD4CA20486253204862C868400662
:103E400014D4C86840F08000C860FDF70FFB2168FB
:103E5000CA6852060AD40546FDF708FB401BB0F5B8
:103E60007A7F4DD82168C8684006F5D588684FF636
:103E7000BF72CFF68F7210408860D4E9010CD4E98C
:103E800003531843A3698A681843104388600D617F
:103E9000086940EA0C400861C86820F08000C860EA
:103EA000886880061AD44FF65F70C0F20100C860BF
:103EB000FDF7DCFA054600BF2168C86880060DD40E
:103EC000FDF7D4FA401BB0F57A7FF5D9042084F8C9
:103ED00021002068FF2141620120B0BDC86C20F0A4
:103EE0000300C8646069E269CB6C10431843C8647E
:103EF000FF204862012084F821000020B0BD00BFEF
:103F0000042084F821002068C168FF21416201205B
:103F1000B0BD000010B596B0044601A804304C2195
:103F2000FCF741F9206842F60001C4F20001884222
:103F300002D016B010BD00BF4FF4006001904FF4E6
:103F40008070119001A8FEF753FF002818BFFCF7FE
:103F50008DFE5820C5F60000816B002241F400411F
:103F60008163016841F4806101600068002100F410
:103F70008060159015980320FDF7D0FE0320FDF713
:103F8000A5FE16B010BD0000002804BF0120704738
:103F9000B0B50446406A28B10020206104F1140045
:103FA00006E000BF6068B0F5827F03D004F11C001A
:103FB000002101600025A56294F85D0020B920462B
:103FC00084F85C5000F04EF8022084F85D00206810
:103FD000D4F80CE00268BEF5E06F22F04002026007
:103FE0004EF4006298BF0125B2F5706F1CBF00232C
:103FF000A3624FEA053CD4E90135D4E9042103F476
:10400000827305F404452B4402F002021A44A369AA
:1040100001F00101E569114403F40072114405F057
:104020003802256A114405F08002A56A114405F49E
:104030000052114301600421626A0EF4706501EAC6
:104040001341636B45EA0C0502F01002294303F0AB
:10405000080311431943416000200121206684F8C0
:104060005D10B0BD80B586B0006843F20001C4F2B7
:104070000101884202D006B080BD00BF4C20C5F6C9
:104080000000416941F480514161416901F480516E
:1040900001910199016841F001010160006801A9E5
:1040A00000F0010001900198E020019002200290B0
:1040B0000020CDE90300052005904FF09040FDF76A
:1040C00009F906B080BD0000411E0020B0EB116F61
:1040D0001CBF012070474EF21002CEF20002516068
:1040E0004EF62351CEF20001F0230B7007219060B1
:1040F000116070477047000070470000FDF7CAB9B3
:104100007047000040F2AC10C2F2000000680047A7
:10411000EFF31080EFF3108172B640F60441C5F65C
:1041200000010A6822F001020A6080F310887047DB
:1041300070B582B040F2C410C2F2030000F054FE29
:10414000A0B940F2C41440F2B016C2F2030401ADAB
:10415000C2F200062046294600F054FE019831685C
:104160008847204600F040FE0028F3D002B070BD22
:1041700040F60840C5F600004FF4803101607047FA
:1041800081B040F25010C5F60000016841F4801182
:104190000160016801F4801100910099D0F8D016F7
:1041A00041F40071C0F8D01640F6D401C5F6000104
:1041B0000A6842F400720A6040BF20BFD0F8BC1207
:1041C00041F40041C0F8BC1201B0704780B582B024
:1041D0004FF2504040F60041CFF6FF70C5F60001A7
:1041E0000A5842F480120A50085800F480100190D6
:1041F0000198086840F001000860086840F48030C9
:1042000008602C20FDF762FD2D2002B0BDE8804043
:10421000FDF75CBD10B540F60444C5F60004A16886
:10422000090705D480474FF40020606010BD00BF2F
:1042300040F24021C2F200010860EFF31080EFF37A
:10424000108172B6216821F40021216080F310886A
:1042500010BD000010B540F60444C5F60004A06986
:10426000800707D52068800704D400F027F80220D3
:1042700014E000BFA069C00706D02068C00703D1C2
:10428000FFF756FF012009E0A069000707D5206865
:10429000000748BF10BD00F055F80820606010BD51
:1042A00040F20000C2F20300C16840F25821C2F29D
:1042B00000010968C06800680847000070B582B056
:1042C00040F2CC10C2F2030000F08EFDA0B940F223
:1042D000CC1440F25C26C2F2030401ADC2F2000627
:1042E0002046294600F08EFD316801988847204617
:1042F00000F07AFD0028F3D002B070BDEFF310801B
:10430000EFF3108172B640F60441C5F600010A6869
:1043100022F002020A6080F31088704740F60440E1
:10432000C5F600004FF400314160EFF31081EFF368
:10433000108272B6026822F40032026081F31088A3
:1043400070470000B0B582B040F2DC10C2F203004A
:1043500000F04AFD80B940F2DC14C2F2030401AD62
:104360002046294600F04EFD019801F04DFD204603
:1043700000F03AFD0028F3D002B0B0BDEFF310809A
:10438000EFF3108172B640F60441C5F600010A68E9
:1043900022F008020A6080F31088704710B540F6DA
:1043A0000444C5F60004A06880075CBF20685FEA8B
:1043B00080301DD5A06800075CBF20685FEA003030
:1043C00026D5A06880065ABF20685FEA802010BD0D
:1043D000EFF31080EFF3108172B6216841F4001101
:1043E000216080F31088BDE81040FFF78BBE00BF4E
:1043F000EFF31080EFF3108172B6216841F40031C1
:10440000216080F31088BDE81040FFF749BF00BF6E
:10441000EFF31080EFF3108172B6216841F40021B0
:10442000216080F3108840F24020C2F20000006852
:1044300080474FF40020606010BD0000F0B541F2ED
:10444000107EEFF3108CEFF3108472B6C2F2000E00
:104450009EF80C4094B19EF824408CB19EF83C40EC
:1044600084B19EF854407CB19EF86C4074B19EF8C3
:1044700084406CB18CF310880120F0BD002408E06A
:10448000012406E0022404E0032402E0042400E006
:10449000052404EB44050EEBC506012737738CF3A6
:1044A00010883061002072734EF835300C70F0BD0A
:1044B0002DE9F04141F69068C2F20008D8F80010EA
:1044C000CA224A6253224A6242F60802C4F2000239
:1044D000136843F020031360136803F00703C3F16C
:1044E000040440F27813C2F200039C709568C5F38F
:1044F00006450135DD70966840F600026FF3DF3641
:10450000771CDF804FF6C067CFF6FF7716FB057785
:10451000E6B2F7404FF6FE76C5F60002B74288BF16
:104520004FF0FF371F81176847F400271760D2F854
:10453000807047F40027C2F8807048B1C868400511
:1045400033D50320FDF7D6FBD8F800102DE000BFCF
:10455000012058704FF0FF30D86041F21070C2F265
:1045600000000027077380F8247080F83C7080F802
:10457000547080F86C7080F8847006201870886819
:1045800020F480608860C86860F4906020F48060E7
:10459000C8604FF40020D0600320FDF76BFBD8F813
:1045A0000010886840F480408860FF204862032043
:1045B00003210022FDF7B2FB0320BDE8F041FDF727
:1045C00085BB0000104700002DE9F04F81B041F697
:1045D000906AC2F2000AEFF3108BEFF3108072B60C
:1045E000DAF80030CA20586253205862986841F2C5
:1045F000107620F48060986040F27810C2F20000DB
:104600000478C2F2000604EB440706EBC7010A4631
:1046100012F80C5F022D13D156F83780D1F81090A4
:1046200043785BB34B7B012B2ED10378A34201F17E
:1046300015032FD1077807711B7803703FE000BF87
:10464000D868400709D4D86840075CBFD8685FEADB
:10465000407002D4D8684007F2D5D8684FF40021E2
:1046600060F4906020F48060D86040F60C00C5F6DD
:10467000000001608BF3108835E000BF00F038FFC8
:104680008BF310882FE000BF8BF31088204600F0DA
:1046900043F91DE08E461EF8145F93F800C01B78A6
:1046A00005EB450506EBC505BCF1060F6B7506D09D
:1046B0009EF800300CEB4C0706EBC7073B75012357
:1046C000137000788BF310884968204600F012F8C8
:1046D000DAF80000CA21416253214162484621466E
:1046E0004246FFF76FFFDAF80000FF21416201B098
:1046F000BDE8F08F2DE9F04741F21076824600EBDD
:104700004000C2F2000606EBC0073C4614F80C0F4E
:104710000D46022802D1504600F0FEF8EFF3108952
:10472000EFF3108072B60320FDF7B8FA41F69068F7
:10473000C2F20008D8F800E0CA20CEF824005320C6
:10474000CEF8240002203946207041F8085F40F27C
:10475000781241F8045CC2F200021078062811D1E8
:1047600010784FF0000C1071062082F800A07875C8
:104770004FF0FF30D06010781279824240F09F8075
:10478000BAE000BFD068013020D042F62805C4F25C
:104790000005286883B200BF286884B2A3420CD009
:1047A000286883B29C4207D0286884B2A34204D010
:1047B000286883B29C42EFD12346D068984209D240
:1047C000D088D568C01A431906E000BF4FF0000C2E
:1047D00007E000BFD068C31AD0789578584320FA14
:1047E00005FC086810FA8CF008600C68107800EB83
:1047F000400006EBC0008068A0420BD91378107807
:10480000984261D103EB430006EBC00000F11405B0
:104810007B7567E040F27813C2F200031D7805EB68
:10482000450006EBC00313F8150F062836D000EB41
:10483000400006EBC0008068A0422FD81D7805EB31
:10484000450006EBC00313F8150F062826D000EB31
:10485000400006EBC0008068A0421FD81D7805EB21
:10486000450006EBC00313F8150F062816D000EB21
:10487000400006EBC0008068A0420FD81D7805EB11
:10488000450006EBC00313F8150F062806D000EB11
:10489000400006EBC0008068A042BFD91C78062CFF
:1048A0001EBF04EB440006EBC00080F814A07C752A
:1048B0003D7583F800A01078127982421CD000F078
:1048C00017FED8F800E01CE003EB430006EBC00540
:1048D00015F8140F00EB400406EBC40484F815A08F
:1048E0007B75387585F800A01078107182F800A0EB
:1048F000107812798242E2D108681FFA8CF2801A8D
:104900000860FF20CEF824000320FDF7DFF989F3CB
:104910001088BDE8F08700002DE9F04381B004461F
:10492000EFF31089EFF3108072B60320FDF7B6F9AC
:1049300041F69068C2F20008D8F80000CA2141622E
:10494000532141F21073416204EB4401C2F20003AF
:1049500003EBC102164616F80C1F022959D140F28A
:104960007811C2F200010F78A74202F1150705D1B4
:104970000A780A713A780A7011E000BF12F8145FE1
:104980003C783F7805EB450503EBC505062C6F75B4
:1049900005D0127804EB440703EBC7031A75012214
:1049A00032700A78062A04BF4FF0FF32CA600A78D4
:1049B000062A29D142F60801C4F200010968490516
:1049C00034D4816821F480618160C168490709D4C9
:1049D000C16849075CBFC1685FEA417102D4C16820
:1049E0004907F2D5C16861F4906121F48061C1602A
:1049F00040F60C00C5F600004FF4002101600320D2
:104A0000FDF738F905E000BF0879904218BF00F0C3
:104A10006FFDD8F80000FF2141620320FDF756F931
:104A200089F3108801B0BDE8F08300BFC168490771
:104A3000C7D5C168490744BFC1685FEA4171C0D5A5
:104A4000C1684907F2D4BCE7FEE7000070B5044630
:104A5000006815468369DA0602D40021002266E068
:104A60000E461021C161816989065CD4711C50D049
:104A700036BBFCF7FBFC2068426894F8421083695F
:104A80001B040BD512F4804208D1202906D04168BE
:104A900041F480414160FCF7E9FC054620688169EA
:104AA000890605D4FCF7E2FC401B1A28F6D328E05F
:104AB00081698906DDD536E020688169890632D4AE
:104AC000FCF7D4FC401BB042F6D92068426894F849
:104AD000421083691B040BD512F4804208D12029AF
:104AE00006D0416841F480414160FCF7BFFC0546B7
:104AF000206880698006DFD4FCF7B8FC401B1A28C8
:104B0000F6D3206801228169242110E08169890699
:104B100009D48169890606D4816989065CBF8169E7
:104B20005FEA8161F2D52021C161012204218369FC
:104B3000DE0505D54FF4807241F00101C26101220A
:104B40005E0505D49B050AD472B9002070BD00BF74
:104B500041F008014FF480629B05C26104D541F029
:104B600002014FF40072C2618269920744BF0022C1
:104B700082628269D20703D1826942F001028261B6
:104B800042684EF60003CFF600631A404260606C44
:104B900008436064202084F84100002084F842002B
:104BA00084F84000012070BD2DE9F0410446006802
:104BB00080690840401AB0FA80F04009904233D131
:104BC000DDF8188015460E461F46581C1CD0BFBB8A
:104BD000204600214246FFF739FF002851D1FCF75B
:104BE00045FC206881693140891BB1FA81F149098E
:104BF000A9423AD080693040801BB0FA80F0400969
:104C0000A842E5D010E000BF20464FF0FF314246F9
:104C1000FFF71CFFA8BB206880693040801BB0FAFA
:104C200080F04009A842EFD00020BDE8F08100BF2D
:104C300080693040801BB0FA80F04009A842F3D16F
:104C4000204639464246FFF701FFD0B9FCF70EFC7B
:104C5000A0EB08012068B942EAD981693140891B7B
:104C6000B1FA81F14909A942E2D1606C40F020001B
:104C70006064202084F84100002084F8420084F819
:104C800040000120BDE8F08170B5044600688069ED
:104C9000800635D415460E4619B928E0806980068D
:104CA0002ED4204631462A46FFF7D0FE30BBFCF713
:104CB000DDFB411B2068B142F0D981698906EDD442
:104CC000606C40F020006064202084F841000020E7
:104CD00084F8420084F84000012070BDFCF7C6FB58
:104CE000206881698906EBD58069800608D4204652
:104CF00000212A46FFF7AAFE0028EFD0012070BD50
:104D0000002070BD70B5044600688069800720D41B
:104D100015460E46481C11D00EBB00BF2046002190
:104D20002A46FFF793FEA8BBFCF7A0FB2068816929
:104D3000890723D580698007F0D50AE020464FF027
:104D4000FF312A46FFF782FE20BB2068806980077A
:104D5000F4D5002070BD00BF80698007F9D42046DB
:104D600031462A46FFF772FEA0B9FCF77FFB411BD4
:104D70002068B142F0D981698907EDD4606C40F0B8
:104D800020006064202084F84100002084F8420064
:104D900084F84000012070BD70470000FFF75ABA48
:104DA000FFF7FCBA704700000060406070470000E9
:104DB000EFF31082EFF3108372B6036848600B6064
:104DC00001600B68596082F310887047EFF310821E
:104DD000EFF3108372B6436808604B6041604B6824
:104DE000196082F310887047EFF31081EFF310829F
:104DF00072B6026881F31088101AB0FA80F0400988
:104E000070470000EFF3108CEFF3108372B6036865
:104E10000B600068EFF31081EFF3108372B6036844
:104E2000426813600068426081F310888CF3108838
:104E3000704700007047000070470000B0B586B0B2
:104E400041F6A0200021C2F20000C5F204010024B6
:104E50000425C0E900140121C0E90244C0E9044569
:104E60000483C16180F82040C0E90A4480F83040E2
:104E7000446380F83840FCF7B9F8002818BFFBF706
:104E8000F5FE8020C1F6505000900620CDE90104C7
:104E90007F20CDE9030541F6A020C2F2000069465B
:104EA0000594FBF7E9FE002818BFFBF7DFFE06B00C
:104EB000B0BD000080B544F21000C5F600004FF40C
:104EC00000410160002000F0CDF9002808BF80BD3E
:104ED0009C214CF6FE22C5F60001CCF6FE2280791C
:104EE0000A600A6822F47C5242EA0020086080BD11
:104EF00010B588B040F69000C5F60000016808249F
:104F000041F05001016042F62400C4F20000CA21C1
:104F100001605321016050F81C1CC5F6000421F00B
:104F2000070140F81C1CFF210160206840F400408C
:104F3000206002F0FDFFD4F87804042161F3020040
:104F400041F69061C4F87804C2F200010020FFF736
:104F5000AFFA00F0BBFE49F2C142C0F600020420E5
:104F6000002103F025F840F2E410C2F203000090A3
:104F700040F29970C0F60000019040F29D70C0F6BA
:104F80000000694604F006FA40F2F020C2F2030085
:104F9000029040F2FC30C2F20300039040F208504D
:104FA000C2F20300049040F23C50059002A800F0C9
:104FB000D5FE00F089FE08B010BD00002DE9F047D5
:104FC00086B000274C20CDE90377C5F600000168C4
:104FD00040F2004941F0040101600168C4F6000993
:104FE00001F0040105910599016809F5806541F01A
:104FF000020101600168002201F00201059105999A
:1050000001684FF0020841F00101016000680221CF
:1050100000F00100059005982846FCF721FA284683
:10502000042101220124FCF71BFA4FF090401021CB
:1050300001224FF0100AFCF713FA48464FF4C04122
:105040000022FCF70DFA48464FF400410122FCF71C
:1050500007FA6E4628463146CDE900470297FCF72D
:1050600039F906208DE89100284631460397FCF770
:1050700031F94FF090403146CDE900A4CDE90277F7
:10508000FCF728F94FF460408DE89101484631461D
:10509000FCF720F98020CDE9000748463146029709
:1050A000FCF718F906B0BDE8F087000080B541F6BE
:1050B000243045F20041C2F20000C4F2000147F67C
:1050C000B5520023C1F2B1024FF0010C80E80E107E
:1050D000C0E90433C0E906330362FCF731FA002863
:1050E00018BFFBF7C3FD41F62430C2F200000021D7
:1050F000FCF7DCF9002818BFFBF7B8FD41F62430B7
:10510000C2F200000021FCF7F7F9002808BF80BDBB
:10511000BDE88040FBF7AABD80B541F6783040F687
:105120000041C2F20000C5F600010160FCF7DEFCA0
:10513000002808BF80BDBDE88040FBF797BD000098
:105140007047000080B541F6906042F60001C2F25F
:105150000000C4F2000100220F2347F6FF7C80E824
:105160000E10C0E90422C0E90622FEF74FFE002817
:1051700018BFFBF77BFD41F69060C2F200000021F2
:105180000022FEF799FD002808BF80BDBDE88040E1
:10519000FBF76CBD10B541F6B46043F20001C2F2FA
:1051A0000000C4F201014FF4827200234FF4E06C5E
:1051B0004FF4007E182480E80E1007210822C0E971
:1051C0000433C0E906E4C0E90833C0E90A31C0E9A4
:1051D0000C32FEF7D9FE002808BF10BDBDE8104014
:1051E000FBF744BD80B541F2C47040F23401C2F215
:1051F0000000C2F20001002201F000FB002818BFED
:10520000FBF734FD41F2C47040F25C01C2F20000D1
:10521000C2F2000101F038FD002818BFFBF726FD9F
:1052200041F2C47040F2F801C2F20000C2F2000183
:1052300001F046F8002818BFFBF718FD41F2C470D2
:10524000C2F2000001F04AFD002808BF80BDBDE8A1
:105250008040FBF70BBD0000FEE70000FEE700000A
:105260007047000047F2000CC1F6FF7C0CF57E721F
:10527000D379A2F10801834202D062450A46F7D1F0
:105280000831834218BF00210846704710B5044614
:10529000FAF770FF204610BD10B51346CAB2194682
:1052A0000446FAF779FF204610BD00007047000061
:1052B000704700002DE9F04F8BB045F28130C0F609
:1052C000000000F08FFB4EF28F50CDF2B3500790EC
:1052D00047F62E70C9F64A00089044F62A00CCF62C
:1052E0007A4009904FF6406040F22A150DF11C09F2
:1052F0000A90C2F2000502204946012206230095C9
:10530000012603F0D9F94FF6416029460A9031F899
:10531000020B4EF6195A42F2ED1444F241574FF087
:1053200000080622CAF6826AC9F64C54C8F62267FB
:105330004FF00A0BCDE90028059102214A460223CD
:10534000CDF81CA008940997CDE9026B049603F0F0
:1053500043F94FF6426135F8040B0A911021CDE96B
:10536000001802214A460223CDE907A40997CDE996
:10537000026B0496059503F02FF90BB0BDE8F08F92
:1053800010B584B04178FF2901D000242FE0B0F897
:10539000031040F60142914210D140F22A12C2F2AB
:1053A00000029388B0F8071002338B4208D1407B8B
:1053B000C00713D101248DF8004013E0002416E04B
:1053C000528801328A4211D1C27A03210D30002461
:1053D0008DF800108DF80820019003E000208DF872
:1053E000000001246846FFF763FF00E00024204628
:1053F00004B010BD7047000070B53C2149F67C72C6
:1054000001EA9001C0F600021144B02888BF02F101
:105410002C01086840F20811C5F60001096849F638
:105420003C7201F00F01C0F6000252F82110B0FBEF
:10543000F1F4FDF7A5FCB0F5007F19D14EF6C020C0
:10544000C0F22110844227D349F24030C0F2342008
:10545000844223D343F6C030C0F2473084421FD386
:105460004DF23F20C0F2DF30844213D8032018E011
:105470004CF6BF70C0F26A0084420DD945F6405028
:10548000C0F2C600844209D346F23F60C0F2031066
:10549000844205D9002507E0002002E0012000E059
:1054A00002200EA151F8205044F20006C5F6000675
:1054B000306820F0070028433060FBF7D7FF044630
:1054C000306800F00700A84206D0FBF7CFFF001BB2
:1054D0000328F5D3032070BD002070BD000000003C
:1054E000010000000200000003000000FFF76CB89C
:1054F0002DE9F04381B042F62804C4F2000441F6DD
:10550000906854F8201CC2F20008D8F80000490541
:1055100034D4816840F2781921F480618160C2F24C
:10552000000999F8002041F2107102EB4203C2F227
:10553000000101EBC3039B68D9F80C7001372BD035
:105540002768BEB22768BFB2BE420CD02668B6B28A
:10555000B74207D02768BFB2BE4204D02668B6B2B1
:10556000B742EFD13E46D9F80C70B74226D2B9F80F
:105570000670D9F80C50BF1B2F4422E0C1684907C0
:10558000C7D5C168490744BFC1685FEA4171C0D54A
:10559000C1684907F2D4BCE70027BEB2B34219D3B1
:1055A000B9F808503544AB4216D9B9F8083000278D
:1055B000062A89F8017015D124E000BFD9F80C70D3
:1055C000BF1B99F8036099F802507743EF40BEB2D1
:1055D000B342E5D2002300E0DB1B0127062A89F84D
:1055E00001700FD002EB420201EBC2073A4652F8BB
:1055F000085FB54226BF1568AD1B002515607A7D92
:10560000062AEFD1190441D099F8022099B281F00D
:10561000010182F00102114318BF0121C268520743
:1056200009D4C26852075CBFC2685FEA427202D402
:10563000C2685207F2D5C2685D1A62F4906121F423
:105640008061C16040F60C00C5F600004FF40021F7
:1056500001600320FCF70EFB54F8140CC5EA0000AF
:1056600044F8140C206880B2216889B2884222D0A4
:10567000206880B281421DD0216889B288421AD048
:10568000206880B28142EFD1084614E0206881B2E0
:10569000206880B281421CD0216889B2884217D02C
:1056A000206880B2814214D0216889B28842EFD14B
:1056B00001460EE00846C9F80C00D8F800008168E1
:1056C00041F480618160AFF3008001B0BDE8F083F8
:1056D00001460320C9F80C1001B0BDE8F043FCF707
:1056E00009BB000080B584B000F10C026B464FF698
:1056F00066402F2103F09CFE9DF80E0004B080BD93
:1057000080B584B002466B464FF67540102103F019
:105710008FFE9DF80E0004B080BD000080B584B0FF
:1057200000F10C026B464FF668400F2103F080FE3B
:105730009DF80E0004B080BD70B544F23C01C5F682
:10574000000109680022C2F2030261F38F021368AC
:1057500045F2B961D3F800C0CAF646118C4501463E
:1057600009D103F1140C03F1180E03F11C0003F12D
:105770000C02103308E0136803F1100C03F1140E4F
:1057800003F118001A1D08330668DCF80000DEF883
:105790000040050E0D70050C4D70050A8D70C5B2E8
:1057A00000F00F000871200E12684871200C8871FB
:1057B000200AC871100E1B688872100CC872100A7B
:1057C0000873180E4873180C2D0988730020CD70CB
:1057D0000C724E72CB7370BD70B588B004464078C1
:1057E000FF2841D03E285BD0052839D1A08840F25F
:1057F000B414C2F20004E18A884202BF0020E082B1
:1058000084F8800094F88100FFF786F801260025CF
:1058100000208021A022002384F88060CDE900557B
:10582000CDE90255CDE90455069502F013FE40F28C
:105830000801C2F200010C2002F0A2FE38B994F86F
:1058400081004EF24601C0F20101FEF753FF40F223
:105850004420E18AC2F2000006704180FBF7E0F9C3
:10586000012008B070BD00BFB4F8030040F60E413F
:10587000884249D040F2094188424FD040F202416B
:105880008842EDD140F2B410C2F20000C08A4BF25F
:105890000721C0F2010102F079FD012008B070BDBE
:1058A000E078012810D00C28DAD140F2B410C2F20E
:1058B0000000C08A0DF11F010DF11E0203F056FA1F
:1058C000012008B070BD00BF40F2B415C2F200055F
:1058D00095F88100FFF720F895F88000052104284D
:1058E00008BF0621B4F8052040F2442085F8801056
:1058F000C2F200000021EA8201704280FBF790F9B9
:10590000012008B070BD00BF40F2B410C2F2000028
:10591000C08A02F031FF012008B070BD40F2B4101F
:10592000C2F20000C08A012102F008FD012008B087
:1059300070BD000040F24010C2F20000002101776B
:1059400040F26010C2F20000017000F055B8000093
:10595000F0B58BB040F62940C0F6000000F042F8E8
:105960004EF28F50CDF2B350079047F62E70C9F625
:105970004A00089044F62A00CCF67A4040F23A25D4
:1059800007AC09900026C2F2000502202146012240
:1059900003230A960095022702F08EFE4EF6195058
:1059A000CAF68260079042F2ED10C9F64C5008909A
:1059B00044F2415040F25401C8F62260C2F20001A4
:1059C000099035F8020B0B881021CDE90261022104
:1059D00022460A96CDE900760496059502F0FCFD74
:1059E0000BB0F0BD40F24011C2F200010A7F41F855
:1059F0002200501C0877704780B5FBF76DF8FBF765
:105A000085F8FBF709F9FBF72BF9FBF72DF9FEF702
:105A100071FBFEF771FBFEF773FBFFF7BDF9FFF7B4
:105A2000C1F900F005FAFFF707FAFFF743FC02F0AF
:105A30001DFCFFF715FCFBF79DF8FFF7FBF9BDE830
:105A40008040FFF785BF000070B504464078FF280E
:105A500008D00020022820D008BB2046BDE87040B6
:105A6000FFF7BABE20794FF44061B1EB002F4FF041
:105A70000000EFD140F24015C2F20005297F002955
:105A8000E8D0002655F82610204688470028E1D1A6
:105A9000297F01368E42F5D3DCE7002070BD01205E
:105AA00070BD00007047000070B582B040F2502019
:105AB000C2F20000FFF798F9B0B940F2502440F26A
:105AC0000006C2F2000401ADC2F2030620462946D8
:105AD000FFF798F9306901990069FFF777F92046D7
